{"abi":[{"type":"constructor","inputs":[{"name":"_tokenGateway","type":"address","internalType":"address"}],"stateMutability":"nonpayable"},{"type":"function","name":"bridgeTokens","inputs":[{"name":"token","type":"address","internalType":"address"},{"name":"symbol","type":"string","internalType":"string"},{"name":"amount","type":"uint256","internalType":"uint256"},{"name":"recipient","type":"address","internalType":"address"},{"name":"destChain","type":"bytes","internalType":"bytes"}],"outputs":[],"stateMutability":"payable"},{"type":"function","name":"tokenGateway","inputs":[],"outputs":[{"name":"","type":"address","internalType":"contract ITokenGateway"}],"stateMutability":"view"}],"bytecode":{"object":"0x60a060405273a801da100bf16d07f668f4a49e1f71fc54d051775f5f6101000a81548173ffffffffffffffffffffffffffffffffffffffff021916908373ffffffffffffffffffffffffffffffffffffffff160217905550348015610062575f5ffd5b50604051610bd1380380610bd18339818101604052810190610084919061011c565b8073ffffffffffffffffffffffffffffffffffffffff1660808173ffffffffffffffffffffffffffffffffffffffff168152505050610147565b5f5ffd5b5f73ffffffffffffffffffffffffffffffffffffffff82169050919050565b5f6100eb826100c2565b9050919050565b6100fb816100e1565b8114610105575f5ffd5b50565b5f81519050610116816100f2565b92915050565b5f60208284031215610131576101306100be565b5b5f61013e84828501610108565b91505092915050565b608051610a5d6101745f395f818161010e015281816101ca0152818161030501526103950152610a5d5ff3fe608060405260043610610028575f3560e01c80631d4ae23f1461002c578063aa0d6e8e14610048575b5f5ffd5b6100466004803603810190610041919061062f565b610072565b005b348015610053575f5ffd5b5061005c610393565b6040516100699190610739565b60405180910390f35b8473ffffffffffffffffffffffffffffffffffffffff166323b872dd3330866040518463ffffffff1660e01b81526004016100af93929190610770565b6020604051808303815f875af11580156100cb573d5f5f3e3d5ffd5b505050506040513d601f19601f820116820180604052508101906100ef91906107da565b508473ffffffffffffffffffffffffffffffffffffffff1663095ea7b37f0000000000000000000000000000000000000000000000000000000000000000856040518363ffffffff1660e01b815260040161014b929190610805565b6020604051808303815f875af1158015610167573d5f5f3e3d5ffd5b505050506040513d601f19601f8201168201806040525081019061018b91906107da565b505f5f9054906101000a900473ffffffffffffffffffffffffffffffffffffffff1673ffffffffffffffffffffffffffffffffffffffff1663095ea7b37f00000000000000000000000000000000000000000000000000000000000000007fffffffffffffffffffffffffffffffffffffffffffffffffffffffffffffffff6040518363ffffffff1660e01b8152600401610227929190610805565b6020604051808303815f875af1158015610243573d5f5f3e3d5ffd5b505050506040513d601f19601f8201168201806040525081019061026791906107da565b505f6040518061012001604052808581526020015f815260200186604051602001610292919061087e565b6040516020818303038152906040528051906020012081526020015f151581526020018473ffffffffffffffffffffffffffffffffffffffff165f1b81526020018381526020015f67ffffffffffffffff16815260200134815260200160405180602001604052805f81525081525090507f000000000000000000000000000000000000000000000000000000000000000073ffffffffffffffffffffffffffffffffffffffff166386f28b7534836040518363ffffffff1660e01b815260040161035d9190610a07565b5f604051808303818588803b158015610374575f5ffd5b505af1158015610386573d5f5f3e3d5ffd5b5050505050505050505050565b7f000000000000000000000000000000000000000000000000000000000000000081565b5f604051905090565b5f5ffd5b5f5ffd5b5f73ffffffffffffffffffffffffffffffffffffffff82169050919050565b5f6103f1826103c8565b9050919050565b610401816103e7565b811461040b575f5ffd5b50565b5f8135905061041c816103f8565b92915050565b5f5ffd5b5f5ffd5b5f601f19601f8301169050919050565b7f4e487b71000000000000000000000000000000000000000000000000000000005f52604160045260245ffd5b6104708261042a565b810181811067ffffffffffffffff8211171561048f5761048e61043a565b5b80604052505050565b5f6104a16103b7565b90506104ad8282610467565b919050565b5f67ffffffffffffffff8211156104cc576104cb61043a565b5b6104d58261042a565b9050602081019050919050565b828183375f83830152505050565b5f6105026104fd846104b2565b610498565b90508281526020810184848401111561051e5761051d610426565b5b6105298482856104e2565b509392505050565b5f82601f83011261054557610544610422565b5b81356105558482602086016104f0565b91505092915050565b5f819050919050565b6105708161055e565b811461057a575f5ffd5b50565b5f8135905061058b81610567565b92915050565b5f67ffffffffffffffff8211156105ab576105aa61043a565b5b6105b48261042a565b9050602081019050919050565b5f6105d36105ce84610591565b610498565b9050828152602081018484840111156105ef576105ee610426565b5b6105fa8482856104e2565b509392505050565b5f82601f83011261061657610615610422565b5b81356106268482602086016105c1565b91505092915050565b5f5f5f5f5f60a08688031215610648576106476103c0565b5b5f6106558882890161040e565b955050602086013567ffffffffffffffff811115610676576106756103c4565b5b61068288828901610531565b94505060406106938882890161057d565b93505060606106a48882890161040e565b925050608086013567ffffffffffffffff8111156106c5576106c46103c4565b5b6106d188828901610602565b9150509295509295909350565b5f819050919050565b5f6107016106fc6106f7846103c8565b6106de565b6103c8565b9050919050565b5f610712826106e7565b9050919050565b5f61072382610708565b9050919050565b61073381610719565b82525050565b5f60208201905061074c5f83018461072a565b92915050565b61075b816103e7565b82525050565b61076a8161055e565b82525050565b5f6060820190506107835f830186610752565b6107906020830185610752565b61079d6040830184610761565b949350505050565b5f8115159050919050565b6107b9816107a5565b81146107c3575f5ffd5b50565b5f815190506107d4816107b0565b92915050565b5f602082840312156107ef576107ee6103c0565b5b5f6107fc848285016107c6565b91505092915050565b5f6040820190506108185f830185610752565b6108256020830184610761565b9392505050565b5f81519050919050565b5f81905092915050565b8281835e5f83830152505050565b5f6108588261082c565b6108628185610836565b9350610872818560208601610840565b80840191505092915050565b5f610889828461084e565b915081905092915050565b61089d8161055e565b82525050565b5f819050919050565b6108b5816108a3565b82525050565b6108c4816107a5565b82525050565b5f81519050919050565b5f82825260208201905092915050565b5f6108ee826108ca565b6108f881856108d4565b9350610908818560208601610840565b6109118161042a565b840191505092915050565b5f67ffffffffffffffff82169050919050565b6109388161091c565b82525050565b5f61012083015f8301516109545f860182610894565b5060208301516109676020860182610894565b50604083015161097a60408601826108ac565b50606083015161098d60608601826108bb565b5060808301516109a060808601826108ac565b5060a083015184820360a08601526109b882826108e4565b91505060c08301516109cd60c086018261092f565b5060e08301516109e060e0860182610894565b506101008301518482036101008601526109fa82826108e4565b9150508091505092915050565b5f6020820190508181035f830152610a1f818461093e565b90509291505056fea26469706673582212203203ec92037bf1b82631d63daa301e654e8bc2f8cee23c683cbe2a983bb5ca8264736f6c634300081e0033","linkReferences":{}},"methodIdentifiers":{"bridgeTokens(address,string,uint256,address,bytes)":"1d4ae23f","tokenGateway()":"aa0d6e8e"},"id":31}